{
  "_format": "hh-sol-artifact-1",
  "contractName": "OnchainShipNames",
  "sourceName": "contracts/OnchainShipNames.sol",
  "abi": [
    {
      "inputs": [
        {
          "internalType": "address[]",
          "name": "_shipNameSubsets",
          "type": "address[]"
        }
      ],
      "stateMutability": "nonpayable",
      "type": "constructor"
    },
    {
      "inputs": [
        {
          "internalType": "bytes32",
          "name": "_seed",
          "type": "bytes32"
        }
      ],
      "name": "getRandomShipName",
      "outputs": [
        {
          "internalType": "string",
          "name": "",
          "type": "string"
        }
      ],
      "stateMutability": "view",
      "type": "function"
    },
    {
      "inputs": [
        {
          "internalType": "uint256",
          "name": "",
          "type": "uint256"
        }
      ],
      "name": "shipNameSubsets",
      "outputs": [
        {
          "internalType": "address",
          "name": "",
          "type": "address"
        }
      ],
      "stateMutability": "view",
      "type": "function"
    }
  ],
  "bytecode": "0x608060405234801561001057600080fd5b506040516109b33803806109b3833981810160405281019061003291906102c1565b806000908051906020019061004892919061004f565b505061030a565b8280548282559060005260206000209081019282156100c8579160200282015b828111156100c75782518260006101000a81548173ffffffffffffffffffffffffffffffffffffffff021916908373ffffffffffffffffffffffffffffffffffffffff1602179055509160200191906001019061006f565b5b5090506100d591906100d9565b5090565b5b808211156100f25760008160009055506001016100da565b5090565b6000604051905090565b600080fd5b600080fd5b600080fd5b6000601f19601f8301169050919050565b7f4e487b7100000000000000000000000000000000000000000000000000000000600052604160045260246000fd5b6101588261010f565b810181811067ffffffffffffffff8211171561017757610176610120565b5b80604052505050565b600061018a6100f6565b9050610196828261014f565b919050565b600067ffffffffffffffff8211156101b6576101b5610120565b5b602082029050602081019050919050565b600080fd5b600073ffffffffffffffffffffffffffffffffffffffff82169050919050565b60006101f7826101cc565b9050919050565b610207816101ec565b811461021257600080fd5b50565b600081519050610224816101fe565b92915050565b600061023d6102388461019b565b610180565b905080838252602082019050602084028301858111156102605761025f6101c7565b5b835b8181101561028957806102758882610215565b845260208401935050602081019050610262565b5050509392505050565b600082601f8301126102a8576102a761010a565b5b81516102b884826020860161022a565b91505092915050565b6000602082840312156102d7576102d6610100565b5b600082015167ffffffffffffffff8111156102f5576102f4610105565b5b61030184828501610293565b91505092915050565b61069a806103196000396000f3fe608060405234801561001057600080fd5b50600436106100365760003560e01c8063549188c61461003b578063aea7c75c1461006b575b600080fd5b61005560048036038101906100509190610262565b61009b565b604051610062919061031f565b60405180910390f35b61008560048036038101906100809190610377565b6101d9565b60405161009291906103e5565b60405180910390f35b60606000826040516020016100b09190610421565b604051602081830303815290604052805190602001209050600080805490508260001c6100dd919061046b565b905060008082815481106100f4576100f361049c565b5b9060005260206000200160009054906101000a900473ffffffffffffffffffffffffffffffffffffffff169050826040516020016101329190610421565b60405160208183030381529060405280519060200120925060008173ffffffffffffffffffffffffffffffffffffffff16634f4fcd39856040518263ffffffff1660e01b815260040161018591906104da565b600060405180830381865afa1580156101a2573d6000803e3d6000fd5b505050506040513d6000823e3d601f19601f820116820180604052508101906101cb919061061b565b905080945050505050919050565b600081815481106101e957600080fd5b906000526020600020016000915054906101000a900473ffffffffffffffffffffffffffffffffffffffff1681565b6000604051905090565b600080fd5b600080fd5b6000819050919050565b61023f8161022c565b811461024a57600080fd5b50565b60008135905061025c81610236565b92915050565b60006020828403121561027857610277610222565b5b60006102868482850161024d565b91505092915050565b600081519050919050565b600082825260208201905092915050565b60005b838110156102c95780820151818401526020810190506102ae565b60008484015250505050565b6000601f19601f8301169050919050565b60006102f18261028f565b6102fb818561029a565b935061030b8185602086016102ab565b610314816102d5565b840191505092915050565b6000602082019050818103600083015261033981846102e6565b905092915050565b6000819050919050565b61035481610341565b811461035f57600080fd5b50565b6000813590506103718161034b565b92915050565b60006020828403121561038d5761038c610222565b5b600061039b84828501610362565b91505092915050565b600073ffffffffffffffffffffffffffffffffffffffff82169050919050565b60006103cf826103a4565b9050919050565b6103df816103c4565b82525050565b60006020820190506103fa60008301846103d6565b92915050565b6000819050919050565b61041b6104168261022c565b610400565b82525050565b600061042d828461040a565b60208201915081905092915050565b7f4e487b7100000000000000000000000000000000000000000000000000000000600052601260045260246000fd5b600061047682610341565b915061048183610341565b9250826104915761049061043c565b5b828206905092915050565b7f4e487b7100000000000000000000000000000000000000000000000000000000600052603260045260246000fd5b6104d48161022c565b82525050565b60006020820190506104ef60008301846104cb565b92915050565b600080fd5b600080fd5b7f4e487b7100000000000000000000000000000000000000000000000000000000600052604160045260246000fd5b610537826102d5565b810181811067ffffffffffffffff82111715610556576105556104ff565b5b80604052505050565b6000610569610218565b9050610575828261052e565b919050565b600067ffffffffffffffff821115610595576105946104ff565b5b61059e826102d5565b9050602081019050919050565b60006105be6105b98461057a565b61055f565b9050828152602081018484840111156105da576105d96104fa565b5b6105e58482856102ab565b509392505050565b600082601f830112610602576106016104f5565b5b81516106128482602086016105ab565b91505092915050565b60006020828403121561063157610630610222565b5b600082015167ffffffffffffffff81111561064f5761064e610227565b5b61065b848285016105ed565b9150509291505056fea2646970667358221220a0b107ce08ce1587ac316e7b535c2ed504e188fb3ccee88da41f8401c3b1064964736f6c634300081c0033",
  "linkReferences": {},
  "deployedLinkReferences": {}
}