{
  "_format": "hh-sol-artifact-1",
  "contractName": "OnchainRandomNames",
  "sourceName": "contracts/OnchainRandomNames.sol",
  "abi": [
    {
      "inputs": [
        {
          "internalType": "address[]",
          "name": "_firstNameSubsets",
          "type": "address[]"
        },
        {
          "internalType": "address[]",
          "name": "_lastNameSubsets",
          "type": "address[]"
        }
      ],
      "stateMutability": "nonpayable",
      "type": "constructor"
    },
    {
      "inputs": [
        {
          "internalType": "uint256",
          "name": "",
          "type": "uint256"
        }
      ],
      "name": "firstNameSubsets",
      "outputs": [
        {
          "internalType": "address",
          "name": "",
          "type": "address"
        }
      ],
      "stateMutability": "view",
      "type": "function"
    },
    {
      "inputs": [
        {
          "internalType": "bytes32",
          "name": "_seed",
          "type": "bytes32"
        }
      ],
      "name": "getRandomName",
      "outputs": [
        {
          "internalType": "string",
          "name": "",
          "type": "string"
        },
        {
          "internalType": "string",
          "name": "",
          "type": "string"
        }
      ],
      "stateMutability": "view",
      "type": "function"
    },
    {
      "inputs": [
        {
          "internalType": "uint256",
          "name": "",
          "type": "uint256"
        }
      ],
      "name": "lastNameSubsets",
      "outputs": [
        {
          "internalType": "address",
          "name": "",
          "type": "address"
        }
      ],
      "stateMutability": "view",
      "type": "function"
    }
  ],
  "bytecode": "0x608060405234801561001057600080fd5b50604051610c24380380610c24833981810160405281019061003291906102d9565b8160009080519060200190610048929190610067565b50806001908051906020019061005f929190610067565b505050610351565b8280548282559060005260206000209081019282156100e0579160200282015b828111156100df5782518260006101000a81548173ffffffffffffffffffffffffffffffffffffffff021916908373ffffffffffffffffffffffffffffffffffffffff16021790555091602001919060010190610087565b5b5090506100ed91906100f1565b5090565b5b8082111561010a5760008160009055506001016100f2565b5090565b6000604051905090565b600080fd5b600080fd5b600080fd5b6000601f19601f8301169050919050565b7f4e487b7100000000000000000000000000000000000000000000000000000000600052604160045260246000fd5b61017082610127565b810181811067ffffffffffffffff8211171561018f5761018e610138565b5b80604052505050565b60006101a261010e565b90506101ae8282610167565b919050565b600067ffffffffffffffff8211156101ce576101cd610138565b5b602082029050602081019050919050565b600080fd5b600073ffffffffffffffffffffffffffffffffffffffff82169050919050565b600061020f826101e4565b9050919050565b61021f81610204565b811461022a57600080fd5b50565b60008151905061023c81610216565b92915050565b6000610255610250846101b3565b610198565b90508083825260208201905060208402830185811115610278576102776101df565b5b835b818110156102a1578061028d888261022d565b84526020840193505060208101905061027a565b5050509392505050565b600082601f8301126102c0576102bf610122565b5b81516102d0848260208601610242565b91505092915050565b600080604083850312156102f0576102ef610118565b5b600083015167ffffffffffffffff81111561030e5761030d61011d565b5b61031a858286016102ab565b925050602083015167ffffffffffffffff81111561033b5761033a61011d565b5b610347858286016102ab565b9150509250929050565b6108c4806103606000396000f3fe608060405234801561001057600080fd5b50600436106100415760003560e01c80634f4fcd391461004657806393aa2eba14610077578063c477bd32146100a7575b600080fd5b610060600480360381019061005b9190610413565b6100d7565b60405161006e9291906104d0565b60405180910390f35b610091600480360381019061008c919061053d565b61034b565b60405161009e91906105ab565b60405180910390f35b6100c160048036038101906100bc919061053d565b61038a565b6040516100ce91906105ab565b60405180910390f35b6060806000836040516020016100ed91906105e7565b604051602081830303815290604052805190602001209050600080805490508260001c61011a9190610631565b9050600080828154811061013157610130610662565b5b9060005260206000200160009054906101000a900473ffffffffffffffffffffffffffffffffffffffff1690508260405160200161016f91906105e7565b60405160208183030381529060405280519060200120925060008173ffffffffffffffffffffffffffffffffffffffff16634f4fcd39856040518263ffffffff1660e01b81526004016101c291906106a0565b600060405180830381865afa1580156101df573d6000803e3d6000fd5b505050506040513d6000823e3d601f19601f8201168201806040525081019061020891906107e1565b9050838160405160200161021d929190610866565b6040516020818303038152906040528051906020012093506001805490508460001c6102499190610631565b925060006001848154811061026157610260610662565b5b9060005260206000200160009054906101000a900473ffffffffffffffffffffffffffffffffffffffff1690508460405160200161029f91906105e7565b60405160208183030381529060405280519060200120945060008173ffffffffffffffffffffffffffffffffffffffff16634f4fcd39876040518263ffffffff1660e01b81526004016102f291906106a0565b600060405180830381865afa15801561030f573d6000803e3d6000fd5b505050506040513d6000823e3d601f19601f8201168201806040525081019061033891906107e1565b9050828197509750505050505050915091565b6001818154811061035b57600080fd5b906000526020600020016000915054906101000a900473ffffffffffffffffffffffffffffffffffffffff1681565b6000818154811061039a57600080fd5b906000526020600020016000915054906101000a900473ffffffffffffffffffffffffffffffffffffffff1681565b6000604051905090565b600080fd5b600080fd5b6000819050919050565b6103f0816103dd565b81146103fb57600080fd5b50565b60008135905061040d816103e7565b92915050565b600060208284031215610429576104286103d3565b5b6000610437848285016103fe565b91505092915050565b600081519050919050565b600082825260208201905092915050565b60005b8381101561047a57808201518184015260208101905061045f565b60008484015250505050565b6000601f19601f8301169050919050565b60006104a282610440565b6104ac818561044b565b93506104bc81856020860161045c565b6104c581610486565b840191505092915050565b600060408201905081810360008301526104ea8185610497565b905081810360208301526104fe8184610497565b90509392505050565b6000819050919050565b61051a81610507565b811461052557600080fd5b50565b60008135905061053781610511565b92915050565b600060208284031215610553576105526103d3565b5b600061056184828501610528565b91505092915050565b600073ffffffffffffffffffffffffffffffffffffffff82169050919050565b60006105958261056a565b9050919050565b6105a58161058a565b82525050565b60006020820190506105c0600083018461059c565b92915050565b6000819050919050565b6105e16105dc826103dd565b6105c6565b82525050565b60006105f382846105d0565b60208201915081905092915050565b7f4e487b7100000000000000000000000000000000000000000000000000000000600052601260045260246000fd5b600061063c82610507565b915061064783610507565b92508261065757610656610602565b5b828206905092915050565b7f4e487b7100000000000000000000000000000000000000000000000000000000600052603260045260246000fd5b61069a816103dd565b82525050565b60006020820190506106b56000830184610691565b92915050565b600080fd5b600080fd5b7f4e487b7100000000000000000000000000000000000000000000000000000000600052604160045260246000fd5b6106fd82610486565b810181811067ffffffffffffffff8211171561071c5761071b6106c5565b5b80604052505050565b600061072f6103c9565b905061073b82826106f4565b919050565b600067ffffffffffffffff82111561075b5761075a6106c5565b5b61076482610486565b9050602081019050919050565b600061078461077f84610740565b610725565b9050828152602081018484840111156107a05761079f6106c0565b5b6107ab84828561045c565b509392505050565b600082601f8301126107c8576107c76106bb565b5b81516107d8848260208601610771565b91505092915050565b6000602082840312156107f7576107f66103d3565b5b600082015167ffffffffffffffff811115610815576108146103d8565b5b610821848285016107b3565b91505092915050565b600081905092915050565b600061084082610440565b61084a818561082a565b935061085a81856020860161045c565b80840191505092915050565b600061087282856105d0565b6020820191506108828284610835565b9150819050939250505056fea26469706673582212207cc060d38d00b1e594f01bfb009c5572908ec41c058a549bdb2dce4806bfea3c64736f6c634300081c0033",
  "linkReferences": {},
  "deployedLinkReferences": {}
}